:020000040800F2
:10000000F0FF0010810B0708555E0608D1010208B9
:10001000210C0708210C0708210C0708000000002C
:10002000000000000000000000000000595E06080B
:100030005D5E060800000000615E060879A4000805
:10004000210C0708210C0708210C0708210C0708C0
:10005000210C0708210C0708A1BF0008C5BF000834
:10006000E9BF00080DC0000831C000082DBA000823
:1000700041BA000855BA000869BA00087DBA0008FC
:1000800091BA0008A5BA0008210C0708210C07083E
:10009000210C0708210C0708210C070855C000088F
:1000A00055D30008B5D2000865D30008A5D20008D2
:1000B000DDD20008EDD20008FDD200082DB4000802
:1000C000F5C9000835B40008F9C90008210C070873
:1000D000210C070835310608353206085933060861
:1000E00091C00008210C0708B9B2060875D30008B2
:1000F0002DD3000885D300081DD30008B9BA000825
:10010000210C0708210C07080DD30008210C070853
:100110007D340608A135060819E5000851E50008F8
:10012000CDBA0008E1BA0008F5BA000809BB00081A
:100130001DBB0008210C0708210C0708210C07082B
:10014000210C0708210C0708210C0708655E06082A
:1001500031BB000845BB000859BB0008C53606087E
:100160003DB40008FDC90008210C0708210C070850
:10017000210C0708210C0708210C0708210C07088F
:08018000210C0708210C0708FF
:1080000010B40C4B4FF0E02C1A68DCF8180019681B
:108010008A42F9D159688842F6D89C684FF47A713F
:1080200001FB04F31B1AB3FBF4F35DF8044B01FBF3
:1080300002307047201C0020074BD0F8E4105B682A
:10804000D0F8F0205B1A9A42B8BFC0F8F030012394
:1080500080F81C3100207047001000E0B04A00EBAF
:10806000800102EBC1012DE9F041CB685B68B3F8F8
:1080700014C01CF0010F4FEA800E40F082805FFABE
:108080008CF4A6074DD5BFF35F8F91F82840012CE3
:10809000E5B200F0F7804FEA400C198BBFF35F8F19
:1080A0000EEB000102EBC10191F82840022C00F018
:1080B00017810EEB000102EBC10191F82840032C5F
:1080C0000AD191F82A1039B10CEB0001114491F852
:1080D0008440002C40F06381998889B241F480612A
:1080E00099800CEB0001114491F986100EEB00040D
:1080F00002EBC40494F8284001348C420FD184442C
:10810000944400218CF884109CF88510002940F0DC
:10811000E080704402EBC000002380F82530BDE809
:10812000F08165076BD400EB4007174414F040045E
:108130001FFA8CF697F986504FEA400C00F0E68063
:108140001E8A0C6BF6B26655EEB2741C64B291F8DE
:10815000288087F88640E51CA845214600F0458127
:108160000EEB000502EBC50595F82850AC42BDD1D9
:108170000CEB00011144023676B281F8866031467C
:10818000B4E71C8824F400642404240C1C801C889C
:10819000A4B244F480641C8000EB4004144491F8C1
:1081A0002A50002684F886604FEA400C002D56D0F5
:1081B00094F88440002C4ED00EEB000102EBC1017C
:1081C000844491F828109444012402298CF88440B6
:1081D00004D1198889B241F4006119800EEB0001C5
:1081E00002EBC10191F8261041F0010119820EEB5A
:1081F000000302EBC30292F82830BDE8F08100EBE7
:108200004005154491F82A40012685F8856000FA5A
:1082100006FC002C7ED095F88440002C40F0828033
:108220000EEB000102EBC10191F82910002900F0CA
:10823000B98019880CEB0004144489B241F4007130
:10824000198094F88610013149B284F886101C8890
:10825000E705FCD44AE791F82710FF29ACD00EEBD4
:10826000000102EBC10191F8264004F0FE041C82DB
:1082700091F82730FF2BBAD084449444FF238CF824
:108280008630B4E791F82A1000293FF404AF00EBE0
:10829000400111444FEA400C91F88440002C3FF417
:1082A000FCAE1C8824F480642404240C1C80BFF3DE
:1082B0005F8F1C8B1C8881F88550A4B244F4007435
:1082C0001C809C8891F98610A4B244F480649C8040
:1082D0000CE7998821F440710904090C998018E78A
:1082E00091F82A1000293FF4E4AE0CEB0001114490
:1082F00091F88440002C3FF4DCAE1C8891F9861084
:1083000024F480642404240C1C8041E036062FD41D
:108310002946EBE695F88410002981D089E700BF53
:10832000201C002091F828400E6B022C1C8847D995
:1083300024F480642404240C1C801F8A95F9864050
:10834000FFB237550F6B198889B241F4007119805B
:10835000E4B21E8A611C49B2F6B27E54A11C9C880C
:10836000A4B249B244F4806485F886109C806EE71C
:108370006E1C41D0CC6A665D6C1CF5B21D8291F812
:10838000285064B2A54287F8864021467FF4AEAEFD
:108390009C8824F480642404240C9C80A6E691F933
:1083A0008610F5E7198889B241F4807119800CEBC9
:1083B00000011144012481F8844091F9861046E7B8
:1083C000A4B244F400741C801F8A95F98640FFB261
:1083D0003755E4B20F6B1E8A611C49B2F6B27E5467
:1083E000E11C49B285F8861031E79D8825F4806547
:1083F0002D042D0C9D80B3E687F8864091F8274028
:10840000E4B21C8291F82A4024B991F8281000297E
:108410007FF4EDAE998821F480610904090C9980FC
:10842000E5E600BF10B404698269E468416814603D
:1084300000234024C2E90234446993630C31C2E949
:108440000433C2E90633C2E90833C2E90A33C2E998
:108450000C33516094B1C269E46893634FF4803087
:10846000C2E90041C2E90233C2E90433C2E906337A
:10847000C2E90833C2E90A03C2E90C335DF8044BD0
:10848000704700BFD0E9001300221A60037D1F2B44
:1084900007D9203B202202FA03F343F01803CB60F4
:1084A0007047202202FA03F343F018038B607047F1
:1084B0001B4B016803F57D7C02E02C3363452CD017
:1084C0001A688A42F9D170B593F804E0427996456A
:1084D0000BD02C33634505D01A688A42F4D02C3374
:1084E0006345F9D14FF0FF3070BD9E468468DEF8D9
:1084F0000C50A5424FF0000208D00132032A0EF1C1
:108500000C0EE6D0DEF80C50A542F6D1DEF8105085
:10851000C668B542F1D150B270BD4FF0FF30704720
:10852000381B0708002A4FEA014C30B503460ABF42
:10853000E6468E468C4600F1C005002419689A680C
:1085400041EA0C0142EA0E029A60C3E900140C33BE
:10855000AB42F3D1D0F8C030C0F8C44043EA0E03B8
:10856000C0F8C030C0F8C84030BD00BF8369196989
:10857000B3F80CC00A6830B49C6822F00102246889
:108580000A60A28992B222EA0C02A281027D0068EE
:108590001F2A06D94568203A082494402C4245D029
:1085A000FEE70568082494402C42F9D1202404FAFF
:1085B00002F28260264A1278002A35D01A7E012AF9
:1085C00039D0D3F8F4200132C3F8F420EFF311814D
:1085D000502282F3128858685C6C026822EA040216
:1085E0009C6C2243C9B2026081F31188D3E90C402C
:1085F0001A6999681D6C096814605061D3E90E40CE
:10860000546090600024B3F8A800D5604C62C86242
:1086100010680124204310601C7683F8F1408A8999
:108620009B8913439BB28B8130BC7047202404FA92
:1086300002F2C260BEE7002283F8F120D3F8F8000E
:108640000A68013022F00102C3F8F8000A60EBE783
:108650000400001010B40C4C6368002B11DD0020E6
:1086600004F1080C0146DCF8A03003F1C0025960A7
:108670000C339342FBD16368013083420CF5807C5C
:10868000F1DC5DF8044B704704000010F0B5414C7C
:1086900004EB401393F8243403B9F0BD3E4B93F838
:1086A0008D5093F88E2095424FEA401C0CD002EB7F
:1086B000420E03EBCE0E9EF89060771E012F4FEA1C
:1086C000420E58D9032E51D004EB0C00A0F8081428
:1086D000EFF31182902383F3128890F80A34B0F8F4
:1086E000081443EA41030021D2B29BB280F80A1475
:1086F00082F311882178D0F820441A0982EA1322E3
:108700005A40C9B1D0F80C14D4F8A040D2431B0190
:108710009BB202F00F0201208840134304F1C00114
:108720005A0013F4004F93B202D1626802436260B0
:108730000C34A142F4D1F0BDD0F80C14D4F8A04010
:108740001B0110319BB202F00F020120884013433D
:1087500004F1C0015A0013F4004F93B202D16268D1
:10876000024362600C34A142F4D1F0BD561C06F005
:108770000306AE42A8D0964403EBCE03184490F80B
:108780009D100029A0D004EB0C03012283F80A24D9
:108790009AE700BF04000010201C0020704700BFB3
:1087A000024B03EB401393F82504704704000010BC
:1087B0004368B0F8502010B41A83EFF311825023AD
:1087C00083F312884168446C0B6823EA0403C46C89
:1087D0002343D2B20B6082F31188D0E9074182684B
:1087E000036912681C605961D0E909415C60C46A80
:1087F0009960B0F86010DC600023D1625DF8044B32
:108800000376704710B4037D02681F2B09D95468A2
:10881000203B202101FA03F31C4215D15DF8044BE3
:1088200070471468202101FA03F31C42F6D00D4969
:108830004068002481F8F04001685DF8044B21F0A5
:10884000010101609360704706494068002481F887
:10885000F04001685DF8044B21F001010160D36034
:10886000704700BF201C00200C4B0D49DB68DB4328
:10887000C3F30223C3F104030122DBB202FA03F3C0
:1088800001EB000C1B0103F0F0038CF800334309EB
:1088900000F01F00824041F82320704700ED00E007
:1088A00000E100E010B4037D02681F2B09D9546871
:1088B000203B202101FA03F31C4215D15DF8044B43
:1088C00070471468202101FA03F31C42F6D00D49C9
:1088D0004068002481F8F14001685DF8044B21F004
:1088E000010101609360704706494068002481F8E7
:1088F000F14001685DF8044B21F001010160D36093
:10890000704700BF201C0020122301480B807047D5
:1089100088010020042301480B8070479C0100203F
:108920001C48D0F8103AD0F8182A10B59B184FF010
:108930001A040C8001D1184810BD174AD0F8140A47
:1089400002F1100411464FF0000E4FEA137CB3F110
:10895000204F34BF0CF1300C0CF1370C81F802C001
:1089600081F803E002318C424FEA0313EDD102F1AA
:1089700008040021030FB0F1204F34BF30333733E8
:108980009374D174023294424FEA0010F2D102483B
:1089900010BD00BF0070FF1FA0010020D0E909201A
:1089A000131A58425841704790F84F3830B53BB9C8
:1089B00090F84D1890F84E380124DAB2914200D860
:1089C00030BDB0F8565804FA03F22A43A0F85628EE
:1089D0000133F2E70379024613F0010006D0D2E931
:1089E0000731D2685B1A013A03EA0200704710B5FA
:1089F000037913F0010304460ED0FFF7EBFF0346A3
:108A000050B1226A6369E1689B5C0132B2FBF1F00C
:108A100001FB1022DBB22262184610BD03799B07CE
:108A20000AD5436A8269D154436A02690133B3FBB0
:108A3000F2F102FB113343627047704701717047D6
:108A40000379014613F0020007D00B69D1E909212F
:108A5000013B521A1A40D2B2981A704782B01D4B8D
:108A60001D49002201920193019B04330193019B54
:108A70001A688B6803F00C03042B02D0082B05D076
:108A8000164A174BC3F8F42002B0704748684B6889
:108A9000400203F03F0314D44A681049B1FBF3F3DA
:108AA000C2F3881203FB02F20B4B5B68C3F3014372
:108AB00001335B00B2FBF3F2094BC3F8F42002B0C0
:108AC00070474968B2FBF3F2C1F3881303FB02F26B
:108AD000EAE700BF50280040003802400024F400BC
:108AE000201C00204A484B494B4BDFF830C12DE990
:108AF000F04F4FF0010A4FF002094FF00408082729
:108B00001026202540244FF0800E30F8022B12F062
:108B1000010F03D01960A3F804A0083312F0020F6C
:108B200003D01960A3F80490083312F0040F03D0A7
:108B30001960A3F80480083312F0080F02D01960FE
:108B40009F80083312F0100F02D019609E80083306
:108B500012F0200F02D019609D80083312F0400FF0
:108B600002D019609C80083312F0800F03D0196086
:108B7000A3F804E0083312F4807F05D04FF4807B23
:108B80001960A3F804B0083312F4007F05D04FF445
:108B9000007B1960A3F804B0083312F4806F05D08D
:108BA0004FF4806B1960A3F804B0083312F4006F1F
:108BB00005D04FF4006B1960A3F804B0083312F429
:108BC000805F05D04FF4805B1960A3F804B00833D0
:108BD00012F4005F05D04FF4005B1960A3F804B0F5
:108BE000083312F4804F05D04FF4804B1960A3F87E
:108BF00004B00833D20B04D04FF4004219609A80BD
:108C0000083301F5806161457FF47FAFBDE8F08FE7
:108C10002C1F070800000240181D00200018024009
:108C200010B584464FEA810E102312F4004F14BF92
:108C30000E2407245200013BCCF8004092B2F444C9
:108C4000F3D100EB81128C01035142F82130122044
:108C500010BD00BF10B584464FEA810E0424130BEB
:108C600003EB430318331201013CCCF8003092B2FD
:108C7000F444F4D100EB01130A01845043F821407D
:108C8000062010BD704700BF704700BF034B00EBCC
:108C9000400003EBC00393F819057047040000106F
:108CA000064B93F8C825824283BF00EB400003EBDC
:108CB000C003D3F81C050020704700BF040000105B
:108CC0001D4B93F8CC25AAB3D3F8081509B10020A1
:108CD0000860012A2ED0D3F8201509B100200860C1
:108CE000022A27D0D3F8381509B100200860032ADA
:108CF00020D0D3F8501509B100200860042A19D0FB
:108D0000D3F8681509B100200860052A12D0D3F8FD
:108D1000801509B100200860062A0BD0D3F89815F9
:108D200009B100200860072A04D0D3F8B0350BB190
:108D300000221A60704700BF040000101D4B93F81A
:108D4000CC25AAB3D3F8081509B100200860012A80
:108D50002ED0D3F8201509B100200860022A27D0B0
:108D6000D3F8381509B100200860032A20D0D3F8C1
:108D7000501509B100200860042A19D0D3F86815ED
:108D800009B100200860052A12D0D3F8801509B176
:108D900000200860062A0BD0D3F8981509B10020EE
:108DA0000860072A04D0D3F8B0350BB100221A604E
:108DB000704700BF04000010C24B93F83230002B04
:108DC00040F05781C04B93F8CC25002A00F0518128
:108DD00093F8181530B500294ED1D3F808150020A6
:108DE000012A086047D993F83015002967D1D3F8D4
:108DF00020150020022A08603DD993F84815002963
:108E000040F0D080D3F838150020032A086032D90A
:108E100093F86015002940F0E880D3F85015002041
:108E2000042A086027D993F87815002940F0FF80BC
:108E3000D3F868150020052A08601CD993F890150E
:108E4000002940F01781D3F880150020062A086019
:108E500011D993F8A81500295BD1D3F898150020F3
:108E6000072A086007D993F8C025002A76D1D3F8DD
:108E7000B03500221A6030BDD3F80C158A0AA2F56D
:108E80008012522A40F218814FF0FE0CEFF311804D
:108E9000502282F312888D4C4D6A8A8A4FF02C0E34
:108EA0000EFB0C4C92B2013542F00102CCF820547A
:108EB000C0B28A8280F3118893F8CC258DE7D3F86D
:108EC00024158A0AA2F58012522A40F203814FF03B
:108ED000FE0CEFF31180502282F312887B4C4D6A16
:108EE0008A8A4FF02C0E0EFB0C4492B2013542F0F0
:108EF0000102C4F82054C0B28A8280F3118893F82A
:108F0000CC25D3F820150020022A08603FF675AF63
:108F1000B1E7D3F89C158A0AA2F58012522A00F212
:108F2000F2806B48024492F800C4EFF311805022A3
:108F300082F31288654C4D6A8A8A4FF02C0E0EFB24
:108F40000C4492B2013542F00102C4F82054C0B280
:108F50008A8280F3118893F8CC257EE7D3F8B41584
:108F60008A0AA2F58012522A9BBF594812184FF064
:108F7000FE0C92F800C4EFF31180502282F31288A5
:108F8000524C4D6A8A8A4FF02C0E0EFB0C4492B262
:108F9000013542F00102C4F82054C0B28A8280F345
:108FA000118864E7D3F83C158A0AA2F58012522A88
:108FB00040F295804FF0FE0EEFF31180502282F3C5
:108FC0001288424C4D6A8A8A4FF02C0C0CFB0E44DE
:108FD00092B2013542F00102C4F82054C0B28A8234
:108FE00080F3118893F8CC250CE7D3F854158A0A3E
:108FF000A2F58012522A77D94FF0FE0CEFF31180C0
:10900000502282F31288314C4D6A8A8A4FF02C0E1E
:109010000EFB0C4492B2013542F00102C4F8205418
:10902000C0B28A8280F3118893F8CC25F5E6D3F894
:109030006C158A0AA2F58012522A5AD94FF0FE0CFA
:10904000EFF31180502282F31288204C4D6A8A8AF5
:109050004FF02C0E0EFB0C4492B2013542F001028F
:10906000C4F82054C0B28A8280F3118893F8CC25CA
:10907000DEE67047D3F884158A0AA2F58012522AD8
:109080003CD94FF0FE0CEFF31180502282F312888E
:109090000E4C4D6A8A8A4FF02C0E0EFB0C4492B295
:1090A000013542F00102C4F82054C0B28A8280F334
:1090B000118893F8CC25C6E60548024492F800C40E
:1090C000E4E600BF8801002004000010201C0020FE
:1090D000381B07080D48024492F800C4F9E60B4813
:1090E000024492F800E467E70848024492F800C49A
:1090F00084E70648024492F800C4A1E7034802440A
:1091000092F800C4BFE74FF0FE0C0EE7381B0708CB
:1091100000EE100AB8EE400A704700BFBCEEC00A6D
:1091200010EE103A98B27047072809D8054B8C22E8
:1091300002FB0033B3F8D005B0FA80F04009704765
:109140000020704704000010072806D8034B8C222B
:1091500002FB0033012283F8D2257047040000107F
:1091600070B53F4C8C2303FB004393F8DF3503B904
:1091700070BD3C4B93F88DE093F88E2096450CD053
:1091800002EB420C03EBCC0C9CF890506E1E012EAF
:109190004FEA420C44D9032D3DD08C2202FB004201
:1091A000A2F8D015EFF31181902383F31288B2F85F
:1091B000D05592F8D23543EA45030025C9B29BB297
:1091C00082F8D25581F311881A09217882EA132294
:1091D0005A4001B1D2431B019BB294F8341AD4F81F
:1091E000305A02F00F021A438C2303FB004431BBB8
:1091F0000121D4F85806A847D4F85416B4F8DC5521
:109200008A8AD4F850362A438A8258601A6842F013
:1092100001021A6070BD551C05F003057545BCD0F0
:10922000944403EBCC03034493F89D100029B4D07D
:109230008C2303FB0043012283F8D225ADE7D4F849
:10924000D835D4F854165B79086903F0FC03184448
:109250000421A847D4F854368000988170BD00BF1F
:1092600004000010201C00207AE700BF072808D85F
:10927000044B03EB401393F8242412B1012283F82A
:109280000A24704704000010072808D8054B03EB98
:109290004013B3F80804B0FA80F04009704700208A
:1092A000704700BF04000010054B93F8C8258242A8
:1092B00086BF03EB4013D3F814040020704700BFAF
:1092C00004000010012343770020704708B50346CF
:1092D0008269006BD96A02449A6101B18847002013
:1092E00008BD00BF436A1B681B6A5B685B78024667
:1092F00013F0010008BF5077704700BFF0B5224C53
:10930000224A234B95B0054604F13C00CDE900020A
:10931000049304F140000023CDE90503CDE90E33A9
:109320001C4A09920B9304F1340210931393119386
:109330006B6A2F7F0A921868012302228DF80C3085
:1093400007938DF820308DF834308DF848303B1D70
:1093500002920E460C9363F017F997B1330E84F81E
:1093600035303634320C330A22706370A670686A66
:10937000694656F0A9FD6B6A186863F005F915B0E7
:10938000F0BD3534EEE700BF8801002080220020C8
:10939000E5920008C592000810B5044694B050222A
:1093A0000649684665F0D6FE606A694656F08CFD4F
:1093B000636A186863F0E8F814B010BD8C1F0708E2
:1093C000C2628161704700BF2DE9F0410446406AE6
:1093D00000681E460F46904663F0D6F8237FA069CA
:1093E000002B3DD0274D030E85F84530052205F1B1
:1093F00046039870EA67020C000A58701A703B68BE
:10940000C5F888300020D8F80030C5F89030012E1B
:109410002363C5F8A00028D0022E1FD1D8F804205D
:10942000C5F89800796885F89400C5F89C10134435
:109430001549C5F8A4200120236385F8A800C5F8C4
:10944000AC10124B627F606AA3F11401002A08BFBE
:10945000194656F039FDE36A7BB1206BBDE8F08117
:109460000B4B0422A3F14505C3E7074B85F8946035
:10947000C5E92630C5F8A400E3E7636A186863F01D
:1094800083F8EAE788010020CD920008E801002077
:10949000CD010020704700BF00B583B0816101920B
:1094A000049A0093C26201236A4601A9FFF78CFF68
:1094B00003B05DF804FB00BF043070470D4B93F818
:1094C0006826D3F864160244D2B283F8682693F86B
:1094D000682601441206C3F8641605D593F8682679
:1094E00082F0800283F86826034B012283F8C420AF
:1094F000704700BF201C0020880100202DE9F047A4
:10950000154FD7F86C56ED0A20D00026B14607F269
:10951000A4687419D7F870361048D3F828A0C7F893
:109520009C9604EBD474641010234246E102D047A9
:109530000F280BDD0A4B03F1100153F8042B013205
:1095400007D18B42F9D12546B542E2DCE802BDE8FD
:10955000F087661CF8E700BF201C00209022002046
:10956000C4220020194B1968D3F8B4268A1A322A6B
:1095700005DCD3F8C8268A1A002A0FDC704793F856
:10958000B826D3F8BC1602F0010219B10868898820
:10959000B2B901830022C3F8C8267047D3F8BC26AD
:1095A00082B11068928810B444693231224218BFE7
:1095B00042835DF8044B08BF0283C3F8C8167047A6
:1095C0004183E7E73231C3F8C8167047201C0020FA
:1095D000064AD2F8BC363BB192F8B8169A881B6896
:1095E000C90754BF1A835A8300207047201C0020EB
:1095F0004FF40070034B1060D3F8D8360B60002096
:10960000704700BF201C00200020704701207047D9
:10961000012070470020704710B41C6994420CD39D
:1096200094460A4661448C42996938BFA4EB0C0207
:1096300061445DF8044B65F08DBD5DF8044B7047E7
:1096400030B585B068465AF0F7FB0F480F4AD0F89E
:10965000FC10009B0E4D41F08071C0F8FC100024FE
:1096600000F1C840C2F8B05FA0F565005460116811
:10967000084CA0F67D60A0FB030341F001019B0CA8
:10968000A360116005B030BD00ED00E0001000E007
:1096900055CEACC5201C00202DE9F84F01307E4C82
:1096A0007E4D01F1FF385FFA80FB1026012760F044
:1096B0007BFE4FF4FA794FF0E0214FF47A7C6B682F
:1096C000C3F30803002B40F0C080EFF31183002B9D
:1096D00040F0BB802368886922689342FAD16268AF
:1096E0009042F7D8A2680CFB02FEAEEB000EBEFB68
:1096F000F2FE0CFB03EE6B68C3F30803002B40F093
:109700008680EFF31183002B40F081802368886905
:1097100022689342FAD162689042F7D8D4F808A040
:109720000CFB0AF2121AB2FBFAF20CFB0323A3EBB6
:109730000E03B3F57A7FDED3B9F10109BFD15846E4
:109740004FF47A7961F0E4FA4FF0E021CC466B688F
:10975000C3F30803002B40F08B80EFF31183002B41
:1097600040F086802368886922689342FAD1626853
:109770009042F7D8A2680CFB02FEAEEB000EBEFBD7
:10978000F2FE0CFB03EE6B68C3F308030BBBEFF3B5
:109790001183F3B92368886922689342FAD1626819
:1097A0009042F7D8D4F808A00CFB0AF2121AB2FBC8
:1097B000FAF20CFB0323A3EB0E03B3F57A7FE2D39B
:1097C000B9F10109C3D1B8F10108BFF470AFBDE828
:1097D000F88FEFF3118386F31288D1F818A00A6985
:1097E000D20344BFC4F80877D1F818A02068D4F891
:1097F0000827DBB283F311880244A0680CFB00F356
:10980000A3EB0A03B3FBF0F30CFB0233D3E7EFF354
:10981000118386F31288D1F818A00A69D20344BFD5
:10982000C4F80877D1F818A02068D4F80827DBB26C
:1098300083F311880244A0680CFB00F3A3EB0A0336
:10984000B3FBF0F30CFB023371E7EFF3118286F305
:10985000128888690B69DB0344BFC4F808778869FC
:109860002368D4F808E7D2B282F31188734439E749
:10987000EFF3118286F3128888690B69DB0344BF1A
:10988000C4F8087788692368D4F808E7D2B282F36D
:10989000118873446EE700BF201C002000ED00E03B
:1098A0002DE9F0411D4CDFF87C801D4F82B004F59E
:1098B0004075012602E00834A54224D094F9063010
:1098C000002BF8D1206800F13F4303F57E0308EB3D
:1098D000932393F8A4345A09032A03F01F0306FACA
:1098E00003F317D0042A11D0022A02D17A6C134351
:1098F0007B640023A1881A46CDE90036083462F063
:10990000E9FDA542DAD102B0BDE8F0813A6B13431C
:109910003B63EEE73A6C13433B64EAE7181D002013
:1099200000380240381B070809494B6C10B5094C38
:1099300043F480434B644022002104F20C7066F033
:109940000BF94FF0FF33C4F84C37C4F84F3710BD54
:1099500000380240201C00202DE9F0411348144D2E
:109960004FF41A72002166F0F7F84FF00008A5F2E4
:10997000AC4705F6880440F2222655F8281000234B
:1099800054F8332091420BD001330E2BF8D1002034
:1099900008F1070860F034F8B045EED1BDE8F08179
:1099A00007EBC30393F8380DF2E700BF182000203F
:1099B000E41F07082DE9F843038AB0F80C801FFA6A
:1099C00088F818EA030829D005460E464FF00047EC
:1099D000B8FA88F327FA03F2D24391B21B3B2982EB
:1099E00008EA0208042B16D8DFE803F0352C231A06
:1099F0000300B36A002B37D003F1FF3900231FFAAD
:109A000089F9B362746A34B123682046494698479D
:109A10006468002CF8D1B8F1000FD9D1BDE8F88303
:109A20007068696B036889B29847B8F1000FCFD1AD
:109A3000F4E7B068A96B036889B29847B8F1000FE2
:109A4000C6D1EBE7F068E96B036889B29847B8F1D3
:109A5000000FBDD1E2E73069296C036889B29847ED
:109A6000B8F1000FB4D1D9E7EB6A1FFA83F9C9E75F
:109A700070B50B4C05460726013E00D170BD94F928
:109A800000001AF041FB031E08DBEA1861789171AF
:109A9000A178E954052BDCBFE37813730434EBE7BA
:109AA000DC28070810B5274B93F88D2093F88E30EB
:109AB0009A4242D1244A92F8F80AF8B192F8344A0C
:109AC00002F6382300EB4000D2F8382A03EBC0003E
:109AD000B4B140F20D3C00E01A6899689C894C6072
:109AE0000C6844F001040C60A2F848C09189183356
:109AF00089B241F4807183429181EDD110BD1A6821
:109B0000118821F0800109041833090C118033F801
:109B1000141CD162118889B241F080011180546215
:109B2000B2F80CC033F8041C41EA0C0189B283423C
:109B3000918123F8044CE2D110BD62F0ADFF002802
:109B4000B8D110BD201C00200400001010B5044640
:109B500064F01EF881B22046BDE81040FEF796BDC5
:109B600010B5044664F014F881B22046BDE81040F8
:109B7000FFF7F6BA38B50B4D00EB400005F5A163D1
:109B800003EBC00393ED027AD3ED037AE7EE007A9C
:109B9000C4002544B0EE670A63F0FAFFD5F8083533
:109BA000186038BD040000100A4608B5054920B900
:109BB00005485AF081FC034808BD04485AF07CFC73
:109BC000004808BD7423002058C0070880C007085B
:109BD00010B5044C04480A4621465AF06DFC204654
:109BE00010BD00BF74230020A8C0070810B5044CA6
:109BF00004480A4621465AF05FFC204610BD00BFCB
:109C000074230020BCC0070810B5044C04480A4661
:109C100021465AF051FC204610BD00BF742300209D
:109C2000C8C00708F8B5A0F668042379DB0725D576
:109C3000657994F84C3805F001073D46FBB1D4F83E
:109C400048341A68D36A5B08536294F8503823B1D9
:109C5000B4F85A380133A4F85A38606C85F0010121
:109C60005FF092FB012384F84F38002384F84D38CD
:109C700084F84E38A4F8563884F84C38F8BD94F877
:109C80004F68012E04BF94F84D3884F84E382046B2
:109C9000FEF78AFE4EB9012384F84F3887EA0301A4
:109CA000606CBDE8F8405FF06FBB002384F84F386C
:109CB0003946F5E738B5A0F668040022606C344DEB
:109CC00003685A62A1F12903302B31D895F8533833
:109CD00095F854180133DBB2012B85F8533809D9B4
:109CE000B4F8563885F853285B08A4F856384B1C4E
:109CF00085F8543895F854280023082AA4F85838D1
:109D000015D185F85438B5F8563801339BB2032B7A
:109D1000A5F8563808D92379DB0705D5E36A94F806
:109D2000560843B3216B98470023A4F8563838BD32
:109D30005B396C290CD8B4F8563885F853285B0881
:109D400043F08003A4F8563895F854380133CFE730
:109D500094F85138002BCDD1012185F85338A5F85E
:109D60005638802384F85118A4F8563885F85418CA
:109D70005FF00AFBBEE7E3696269D054E369E26819
:109D80000133B3FBF2F102FB1133E361CCE700BF17
:109D9000201C00208069002836D003681A6A127BD4
:109DA0002ABBD3E904125B68496872B110B45468E5
:109DB00000220A6022609A885DF8044B22F00302B8
:109DC0001204120C9A8058F007BD1A891206FCD4AE
:109DD0001A89D20709D400220A609A8822F0020266
:109DE0001204120C9A8058F0F7BC9A89F0E7826846
:109DF000002AD6D0116892880A83D3E904125B68DE
:109E00004968002AD2D1E0E7704700BF806900B9F5
:109E10007047016830B4D1E904424B6864687AB194
:109E20005568002222602A609A8822F003021204F8
:109E3000120C9A800B6A1B7BA3B930BC58F0CCBCC7
:109E40001A891506FCD41A89D20714D4002222607C
:109E50009A8822F002021204120C9A800B6A1B7B71
:109E6000002BEAD08368002BE7D01A689B88138305
:109E700030BC58F0B1BC9A89E5E700BF38B590F81E
:109E80002830012B044606D0407F08B9012038BD98
:109E90000023637738BD406A03681A7B92B9637FF9
:109EA000002BF3D00A4D0B49022305F6580255F05A
:109EB000C5FF95F85938D84303F0010300F00100BD
:109EC0006377E7E71B6A002BE9D0002038BD00BFAD
:109ED000201C00205002002038B5044694F8283099
:109EE000012B07D0637F0BB100236377012038BDBE
:109EF0001B6A23B1606A03681A7B002AF8D1637F6A
:109F0000002BF3D0074D0849022305F6580255F0FF
:109F100095FF95F8593803F00102DB076277E5D524
:109F2000DCE700BF201C0020500200202DE9F84390
:109F3000DDF820800F4615460021202204461E46EB
:109F400065F00AFEB8F1000F0CD0D8F80030E381BC
:109F50001B0C2382D8F80430B8F80A20E3821B0CCB
:109F600062822383384665F08BFDEB0619D4431ECD
:109F7000B8B107EB000C01E0013B12D31CF801ED76
:109F8000BEF12E0FF8D1C01A421E032AA8BF032229
:109F9000082B03F10109A8BF08239046B9441A46CB
:109FA00006E008280246B946A8BF08224FF000087C
:109FB0004FF02033394623606360204665F0CAF8CD
:109FC00004F10800154B238142464946837065F031
:109FD000C1F8611EE21D11F801CFACF16103192B2C
:109FE0009CBFACF1200C81F800C09142F3D104F188
:109FF0000A0011F8013FA3F16102192A9CBF203B1E
:10A000000B708142F5D118232373330CA382E572C0
:10A01000099B6683E361BDE8F88300BF2020200030
:10A020002DE9F04FDFF84CB4DBF80000CBF8B406B4
:10A0300085B0002B60D013440C46174601F5FE7A1C
:10A0400099461FE0002F64D0DBF8E436BB4200F0F5
:10A05000C680DBF8E036BB4200F0F880DBF8E8367B
:10A06000DBF8EC16BB424BD8B94200F27081791A8A
:10A0700020465EF0C5FC01374F4504F500740AF533
:10A08000007A39D0DBF8F036BB42DBD8DBF800577A
:10A09000FB1A296BDA0802328A4203F0070602D360
:10A0A000AB6B9A420BD92946104602925EF078FCBF
:10A0B000029A0546002800F06A81CBF800072B7948
:10A0C000002B40F01E81D5F82880B8F1000F00F079
:10A0D00057812B6BD21AEB6806EBC20203EB4222CC
:10A0E00020462B464FF400710137C0474F4504F519
:10A0F00000740AF5007AC5D1002005B0BDE8F08FE4
:10A10000B942B4D94FF400720021204665F024FD15
:10A11000B1E74FF400723946204665F01DFD8023FB
:10A1200084F8BE310C2384F8C231DBF8E016C54A4E
:10A13000DBF8D836C4F8C6119142C4F8CA3100F32E
:10A140000B81C14AC14D82FB010285FB01050A4416
:10A15000C817C0EB6212C0EB2530BD4D84F8C101B9
:10A1600085FB0265C2EB82168010891B013120F04D
:10A170003F0015440843D117C1EBE5110A4484F8A8
:10A18000BF21B04A84F8C001013B934200F3F08044
:10A19000AD4AAE4882FB031280FB03101A44D91764
:10A1A000C1EB6212C1EB2031A94884F8C51180FBD4
:10A1B0000250C2EB821589105B1B013321F03F0175
:10A1C00010441943D317C3EBE0131A4484F8C411A5
:10A1D00084F8C3214AF65523A4F8FE314BE74FF02B
:10A1E000FF3384F8EC3184F8ED3184F8EE3184F8F3
:10A1F000EF315223237063706123A37084F8E73139
:10A200004123E37084F8E6317223002584F8E431B9
:10A2100084F8E531DBF8F836C4F8E8314FF4F07231
:10A220002946201D65F098FC552384F8FE316FF017
:10A230005503C4F8F051C4F8F451C4F8F85184F847
:10A24000FC5184F8FD5184F8FF3114E74FF400729B
:10A250000021204665F080FC7E4B03CB45F6EB03E6
:10A2600023809023C4F80710A37002220821F8234A
:10A27000C4F80300617322746375DBF8D836227367
:10A28000A27384F82C20DBF8E0269B1A2362DBF80B
:10A29000E826DBF8EC369B1A63620023E372E37373
:10A2A0006377A377E37784F82D3084F82E3084F831
:10A2B0002F3084F83130684BA361684BC4F84230CA
:10A2C0003E232377012384F83030654A802384F8C5
:10A2D000403084F846104AF65521A4F8FE1103CA0E
:10A2E000604BC4F84700C4F84B1003CB1388A4F8A4
:10A2F0004F309378C4F85200C4F8561084F85130A7
:10A30000B9E64FF400720021204665F025FC002ECE
:10A3100044D12B6C04F12008002B7BD02B6B5249CD
:10A320001122CDE900662046FFF700FE2B6C1A6C67
:10A33000002A7ED01B6B4D49CDE9006640461122B4
:10A34000FFF7F4FD04F140084FF4E0736DE0F91AF3
:10A3500020465EF055FB8EE6FF2284F8C1214FF6C1
:10A36000FF72A4F8BF21374A013B93427FF710AF39
:10A37000FF2384F8C5314FF6FF73A4F8C33129E7F2
:10A3800041464FF40072204665F0E6FB73E6384A1A
:10A39000231F43F8042F9A45FBD16CE6D5E910251D
:10A3A0003301002A43D0023B002D3FF464AE013B51
:10A3B000AD6CF9D1A0464FF40073002D3FF45BAEB5
:10A3C000CDE9027A08EB0306A24608E00024CDE9B5
:10A3D00000C4FFF7ABFDAD6CBDB1B04515D02C7915
:10A3E00029682B6B404605F11C0C112208F120084E
:10A3F000002CEBD16A792C6942F02102CDE900C42E
:10A40000FFF794FDAD6C002DE7D15446029FDDF8B7
:10A410000CA030E6CDE900663346DBF8DC160822F6
:10A420002046FFF783FD4FF4F0736D6CC5E7013BE9
:10A43000BAE7CDE900660D49334640461122FFF7E1
:10A4400075FD7FE7FF03FB00832008829755454198
:10A4500081808080E0C007083F00FF0029940E0D36
:10A46000ECC00708F8C00708D8C00708DCC0070818
:10A47000DEADBEEF201C002010B4EFF311821023DC
:10A4800083F31288084B19684FF0E02001311960FE
:10A49000816959600024C3F808470369D3B283F384
:10A4A00011885DF8044B7047201C002010B4EFF3B6
:10A4B0001181102383F312884FF0E022C9B294690E
:10A4C000136913F4803F0C4B1EBF0120C3F808072B
:10A4D00094691868D3F8082781F3118899680244B1
:10A4E0004FF47A7000FB01F31B1B5DF8044BB3FBC8
:10A4F000F1F300FB02307047201C0020234B5B6807
:10A50000C3F3080310B4DBB9EFF31183C3B9204BD5
:10A510004FF0E02C1A68DCF8180019688A42F9D16B
:10A5200059688842F6D89C684FF47A7101FB04F3AD
:10A53000181AB0FBF4F05DF8044B01FB0200704701
:10A54000EFF31181102383F312884FF0E022C9B298
:10A550009469136913F4803F0D4B1EBF0120C3F8AB
:10A56000080794691868D3F8082781F31188996857
:10A570004FF47A73024403FB01F0001B5DF8044BB7
:10A58000B0FBF1F003FB0200704700BF00ED00E0FC
:10A59000201C00202DE9F04F037D02681F2B83B0A3
:10A5A000044609D95068A3F120052021A9400142A1
:10A5B00007D103B0BDE8F08F106820219940014217
:10A5C000F7D04749474D4968A769C5F8FC1A8C215F
:10A5D00001FB075195F834CAD1F8D8050668BCF1DB
:10A5E000000F18D1D1F85006B1F8DCC5016821F090
:10A5F00001010160B18989B221EA0C01B181297898
:10A60000B9B91F2B60D9A3F1200120238B40D3605F
:10A6100003B0BDE8F08F0069016821F0010101601D
:10A62000B18921F480710904090CB18129780029CC
:10A63000E7D04FF08C0808FB07F805EB08030193FF
:10A64000D3F850A6DFF8A0B0504659F041FC019B6A
:10A65000012283F82426D5F8043B08F11809D944CF
:10A66000002B38D033889BB243F08003338008F14D
:10A6700074084FF0FF330BEB0801F362304659F0DA
:10A680006DFE8C2303FB0757494600235046C7F84D
:10A69000F43557F04DFFD7F8503616225A601A6835
:10A6A00042F001021A60D7F8D825B7F8DC351268F5
:10A6B00091890B439BB293810949237D49682268A4
:10A6C000C5F8001B1F2B9ED8202101FA03F39360CD
:10A6D00003B0BDE8F08FFFF711FFC5F8040BC1E729
:10A6E000001000E004000010D40500102DE9F8432C
:10A6F000FFF704FF204F214E7C6805464FF000080D
:10A70000002C2DDD00231A4607EB0321013391F8BD
:10A71000F9109C4242EA0102F6D142EA08095FFAC6
:10A7200089F990467368C3F30803B3B9EFF3118353
:10A730009BB9FDF765FC401BB0F5FA6F02DCB8F180
:10A74000000FDDD1B9F1000F04D00D4B93F85A285A
:10A75000542A09D04846BDE8F883FFF7A7FEEAE788
:10A76000C1464FF00008DDE7B3F860280132A3F8D6
:10A7700060284846BDE8F8830400001000ED00E0C2
:10A78000201C0020AD4B1B780BB9012070472DE930
:10A79000F04FDFF8BCB2AA49DBF80020A94BA1FBBF
:10A7A00002125209A3FB0213DB08A44987B003EB92
:10A7B0008303A2EB430391F8C825049201F6083401
:10A7C000DAB2059204EB8307002201F6E853019305
:10A7D00001F5816A9046049B984500F00D81DAF8F6
:10A7E0001820DAF80490D2F8E830D2F8EC6002933E
:10A7F000FFF784FE029B03904FEA890C9BF85A985E
:10A800009BF86C080CF1085C06F180610CEB431CB2
:10A810003939B9F1540F0CEB81110CEB801301D1D4
:10A82000ABF86208994240F27D811A68002A00F074
:10A8300071811A6C002A00F08381D3F88020002AED
:10A8400000F08081D3F8C02003F58073002AE9D19D
:10A85000A3EB0C0C99424FEAAC1240F26381B11A9F
:10A8600045294FF0000628BF45213046B64603EB88
:10A8700081111D4616460DE01A6C002A40F0EA8050
:10A88000D3F88020002A40F01581D3F8C02003F5CA
:10A8900080732AB9994206D91A68002AECD040334D
:10A8A000994200F2DB8032467646112E40F23E811C
:10A8B000DEF1150100F13A81634B1D46D3F8CC302F
:10A8C0009A4238BF2B46039D38BFC3F8CC20DBF833
:10A8D0007038EA1A002A18DB03F5F42303F59073A5
:10A8E0009D4284BF2B460533CBF87038564B564AF1
:10A8F000D3F8CC30052B86BF053BDBB200238BF8A9
:10A900006C384FF0FF33C2F8CC3031B100FA01F1AE
:10A91000C6F114060120B04008434C4EC0F3C433C6
:10A9200006EB8303D3F8BC1D00F01F0306EB830383
:10A93000D3F8BC2D42EA0132C0F3441106EB810189
:10A94000C0F3842306EB8303D1F8BC1DD3F8BC3DD0
:10A9500042EA011141EA032181EA112383EA131338
:10A9600003F00F02354BD3F8F03D0F2A03F101033A
:10A9700040F0BD80B1F5803F80F0B980B9F1540F4F
:10A980004FEA111140D02D4AB1F5606FC2F8F03D89
:10A9900045D0019B998194F85830059883420CD09A
:10A9A000BA6823689B1A23603A6B63689B1A6360DA
:10A9B0000023BB603B6384F85800236801332360A5
:10A9C000BB680133BB604FF6FF73994205D16368E2
:10A9D000013363603B6B01333B63019B08F101086A
:10A9E0001433B8F1080F04F15C0407F15C0701931C
:10A9F0000AF1200A7FF4EFAE104A0123012082F809
:10AA0000EC3E07B0BDE8F08FBBF85C280132ABF834
:10AA10005C280A4AB1F5606FC2F8F03DB9D19BF8E5
:10AA20008E3003EB43030BEBC303434493F89D3099
:10AA30000D2BAED1019A80239377ACE70400001070
:10AA40001F85EB51CDCCCCCC88010020381B0708EA
:10AA5000201C0020803399427FF625AFA3EB050C24
:10AA60003C4A4FEAAC1C0CF1010C82FB0C52A2EBED
:10AA7000EC72012AB8BF012290404FF0010C9644BD
:10AA8000013A0CFA02F210439C46DCF800209AB11D
:10AA9000DCF84020002A57D0DCF88020002A56D06D
:10AAA000DCF8C0200CF5807C42B16145EDD81D4634
:10AAB0006346EFE6C033F3E60CF1400C6145F6D98E
:10AAC000ACEB03029211234B013283FB0253A3EB45
:10AAD000E273012BB8BF012398409E440122013B41
:10AAE00002FA03F3184363461D466346D2E6B9F102
:10AAF000540F04D1BBF85C280132ABF85C28164A2D
:10AB0000C2F8F03DD2F8EC3D0133C2F8EC3D4FF60F
:10AB1000FF7140E74033A3EB0C0C99424FEAAC12B3
:10AB20003FF69DAE10B101388BF86C08B9F1540FA7
:10AB30007FF453AFBBF85E380133ABF85E384CE7B7
:10AB4000803385E6C03383E60CF1800CB6E70CF168
:10AB5000C00CB3E75655555504000010F8B51D4B11
:10AB600093F88D2093F88E309A422ED11A4F7D683B
:10AB7000002D11DD3846002410F8086B16B1037E55
:10AB8000012B1CD002691368013443F00103A54274
:10AB900000F580701360F1D1FFF7B0FCD7F8F04EEC
:10ABA000002C0BDD0D4A02EBC404116893888889E0
:10ABB000083203439BB294428B81F6D1F8BD002347
:10ABC00080F8F030FDF7F4FDDCE761F065FF002868
:10ABD000CCD1F8BD201C002004000010F80E00109D
:10ABE000454B5B68C3F308032DE9F0430546002B92
:10ABF0005ED1EFF31183002B5AD1404B4FF0E0248C
:10AC00001A68A06919688A42FAD159688842F7D847
:10AC10009E684FF47A7101FB06F4241AB4FBF6F433
:10AC200001FB0244344E10274FF0E02C4FF47A7EA3
:10AC30004FF001087268C2F30802CAB9EFF311823B
:10AC4000B2B91A68DCF8180019688A42F9D1596853
:10AC50008842F6D8D3F808900EFB09F1091AB1FB27
:10AC6000F9F10EFB0212121BAA42E3D3BDE8F083F6
:10AC7000EFF3118287F31288DCF81800DCF810106B
:10AC8000C90344BFC3F80887DCF81800D3F8009064
:10AC9000D3F80817D2B282F311884944D3F8089048
:10ACA0000EFB09F2121AB2FBF9F20EFB0122DAE7EF
:10ACB000EFF31181102383F312884FF0E022C9B221
:10ACC0009669136913F4803F0C4B1EBF0120C3F833
:10ACD000080796691868D3F8082781F31188024499
:10ACE00098684FF47A7101FB00F4A41BB4FBF0F4F4
:10ACF00001FB024496E700BF00ED00E0201C0020AD
:10AD0000002878D02DE9F0473B4B3C4D00F1FF384F
:10AD100010264FF0E0204FF47A7C01276A68C2F3D6
:10AD20000802002A53D1EFF31182002A4FD11A688A
:10AD3000846919688A42FAD159688C42F7D89968AF
:10AD40000CFB01FEAEEB040EBEFBF1FE0CFB02EEB3
:10AD50006A68C2F30802EAB9EFF31182D2B91A683D
:10AD6000846919688A42FAD159688C42F7D8D3F8B5
:10AD700008900CFB09F1091BB1FBF9F10CFB021265
:10AD8000A2EB0E02B2F57A7FE2D3B8F10108C5D288
:10AD9000BDE8F087EFF3118286F3128884690169B8
:10ADA000C90344BFC3F808778469D3F800A0D3F877
:10ADB0000817D2B282F31188D3F8089051440CFBE3
:10ADC00009F2121BB2FBF9F20CFB0122D8E7EFF3F8
:10ADD000118186F3128884690269D20344BFC3F8E3
:10ADE00008778469D3F800E0D3F80827C9B281F363
:10ADF00011887244A3E77047201C002000ED00E09A
:10AE00002DE98848954C964E431C5FFA83FB0A2532
:10AE10004FF0100801275FF0C7FA4FF4FA7C4FF0AB
:10AE2000E0204FF47A717368C3F30803002B40F0FD
:10AE3000CE80EFF31183002B40F0C980D4F800E0FE
:10AE4000836922689645F9D162689342F6D8D4F8AE
:10AE5000089001FB09F2D21AB2FBF9F201FB0E22B3
:10AE60007368C3F30803002B40F0D580EFF3118320
:10AE7000002B40F0D080D4F800E0D0F81890236880
:10AE80009E45F8D163689945F5D8D4F808A001FB30
:10AE90000AF3A3EB0903B3FBFAF301FB0E339B1A8E
:10AEA000B3F57A7FDCD3BCF1010CBCD158465FF01E
:10AEB0002FFF4FF47A7C4FF0E02061467368C3F3B4
:10AEC0000803002B3ED1EFF31183002B3AD1D4F8C5
:10AED00000E0836922689645F9D162689342F6D80A
:10AEE000D4F8089001FB09F2D21AB2FBF9F201FB87
:10AEF0000E227368C3F30803002B46D1EFF31183CE
:10AF0000002B42D1D4F800E0D0F8189023689E4579
:10AF1000F8D163689945F5D8D4F808A001FB0AF385
:10AF2000A3EB0903B3FBFAF301FB0E339B1AB3F552
:10AF30007A7FDED3BCF1010CC0D1013D7FF46BAF51
:10AF40005FF02AFAEFF3118288F31288D0F818E044
:10AF50000369DB0344BFC4F80877D0F818E023681E
:10AF6000D4F80897D2B282F311884B44D4F80890F1
:10AF700001FB09F2A2EB0E02B2FBF9F201FB032284
:10AF80007368C3F30803002BB8D0EFF3118388F381
:10AF90001288D0F818A0D0F810E01EF4803F1CBF33
:10AFA000C4F80877D0F818A0D4F80090D4F808E7CF
:10AFB000DBB283F31188CE44D4F8089001FB09F387
:10AFC000A3EB0A03B3FBF9F301FB0E33AEE7EFF398
:10AFD000118288F31288D0F818E00369DB0344BFBC
:10AFE000C4F80877D0F818E02368D4F80897D2B2EC
:10AFF00082F311884B44D4F8089001FB09F2A2EBCC
:10B000000E02B2FBF9F201FB03227368C3F30803DB
:10B01000002B3FF42BAFEFF3118388F31288D0F8A5
:10B0200018A0D0F810E01EF4803F1CBFC4F80877C9
:10B03000D0F818A0D4F80090D4F808E7DBB283F376
:10B040001188CE44D4F8089001FB09F3A3EB0A035E
:10B05000B3FBF9F301FB0E3321E700BF201C0020F6
:10B0600000ED00E030B50C4683B00546D8B103686A
:10B0700003F13F4303F57E039B0A0C4A134493F804
:10B08000A4045EF0BDFCC4F34112C4F30013CDE987
:10B090000032C4F38103A988286804F0030261F038
:10B0A00019FA03B030BD4FF0FF33E6E7381B07084D
:10B0B00000B1D7E7704700BF70B50E4C94F8C86573
:10B0C000B6B104F58164002504E00135B54204F110
:10B0D00020040DD0237F002BF7D0E0680028F4D0A7
:10B0E000217D0135FFF7BEFFB54204F12004F1D107
:10B0F000012070BD04000010F0B5002487B0CDE938
:10B100000144CDE903440DF1040CC0E93D44C0E91C
:10B110003F44C0F80441054600F5847EBCE80F00BA
:10B12000AEE80F00CEF8004095F82131059444F2C6
:10B130003B36A5F84C610BB907B0F0BD1E09013EC6
:10B14000052E03F00F032DD81C4F07EB4602B2F873
:10B15000F40340FA03F2D20724D5012202FA03F3E2
:10B16000013B1840374465F041FB97F83C3E144AD8
:10B170002946144D034405EBC3052620E8802346E9
:10B1800041F80C2F284622465EF082FF0E49AA881D
:10B190000868B2FA82F24FF00043D34003430B60D9
:10B1A00007B0F0BD2946064B41F80C3F00231A4674
:10B1B000184607B0BDE8F0405EF06ABF381B0708CC
:10B1C00091B50008181D0020003C014038B5040965
:10B1D000013C052C1AD80F4D05EB440200F00F037B
:10B1E000B2F8F40340FA03F212F0010210D0012287
:10B1F00002FA03F3013B1840254465F0F7FA95F88D
:10B200003C3E054A034402EBC30038BD002038BD74
:10B21000104638BD381B0708181D002008B518F067
:10B2200073FF052807D8054BD3F874380344187BFF
:10B23000BDE80840CAE7002008BD00BF201C002070
:10B2400008B51D20FFF7C2FF10B190F9063053B1C9
:10B250001E20FFF7BBFF10B190F9063003B108BD07
:10B260005523C38008BD5523C380F1E7F8B5037D9E
:10B27000856902681F2B04464BD95068203B20216A
:10B280009940084237D0D16010219940D16051686F
:10B29000D940CE077FD4EFF31183502282F3128876
:10B2A0002A6C1168C90757D4516889B291B9D5E998
:10B2B000096086424DD0AF699CBF0E46296907449C
:10B2C00094BF081A301A80B20021D760AE6285F8A8
:10B2D00064105060116841F00101DBB2116083F32A
:10B2E000118895F86430002B3DD1237D22681F2BF7
:10B2F000194614D9203B506808219940084200D0D3
:10B30000D1605068042101FA03F3184200D0D360E1
:10B31000F8BD16682020984006420DD119461068E5
:10B3200008238B40184200D09360106804238B40A0
:10B330001842EDD09360F8BD102199409060916063
:10B340001168D940C807A6D5012101FA03F393601B
:10B35000A1E7012285F86420DBB283F3118895F818
:10B360006430002BC1D095F87230002BBDD195F818
:10B370007100FFF72BFF2A6E938923F008031B044B
:10B3800001211B0C938185F872100028ADD020217B
:10B39000FFF768FEA9E7012101FA03F3D3607AE71A
:10B3A00008B55AF069FD1B20FFF710FF08B12923EB
:10B3B000C3801C20FFF70AFF08B12923C3800A4B72
:10B3C00093F87D28012A01D0012008BD0748C3F861
:10B3D000800800F120014C305DF060FB044B002040
:10B3E00083F8230008BD00BF201C00205802002065
:10B3F00000ED00E043680B4A23F0407323F48073B0
:10B4000043F48073436083681A4042F00202826012
:10B41000C36A0139C9B223F4700343EA0153C3621A
:10B42000704700BFFDF7FFC0704700BF0020FCF76A
:10B4300015BE00BF0120FCF711BE00BF0220FCF7C3
:10B440000DBE00BF10B1036882881A83704700BF29
:10B4500030B1036882881B691A4214BF01200020A2
:10B46000704700BF10B1036882885A83704700BFDD
:10B47000F0B5056890F888606B688488012285F8CB
:10B4800024201A8822F040021204120C1A802A8901
:10B49000A24255D1017BAA7A8A420BD01A8822F0A7
:10B4A00003021204120C1A801A8892B2002944D0A6
:10B4B0001A80A9721A882F7B92B242F040021A8039
:10B4C0002B6A9A6892B34FF0000C2F4C1433E64667
:10B4D00053F8101C964401EA040221B1B2F1805FD6
:10B4E00027D06A692AB353F8142C143302EA0401F2
:10B4F00012B1B1F1805F1CD053F80C2C0CF1010C8F
:10B50000002AE5D1AFB1A6B1BCF1010F0AD8BEF156
:10B51000070F07D80CEB8C0C4FEA8C022B6A1344F4
:10B520001B7B33B9BDE8F04057F030B80FB1002EA7
:10B53000F4D1BDE8F04057F0B7BA42F00302B7E7E4
:10B540001A88124922F0380212048B424FEA124242
:10B5500017D001F580618B4213D02146B1F5807F71
:10B56000A8BF4FF480710229B8BF022191FAA1F15E
:10B57000B1FA81F1013942EAC10292B21A802C81FA
:10B5800088E76108EAE700BF0000FFFF00380040DD
:10B5900038B52C4AD0F8E0305268D0F8D8100446BC
:10B5A00073B1501A83420BDC94F8D030C4F8D82021
:10B5B000012B10D0D4F8D4300133C4F8D43038BDC6
:10B5C000D4F8E430C4F8D8200B44C4F8DC3094F844
:10B5D000D030012BEED16168201D04F1E805EFF3B6
:10B5E000118C102383F3128863681B6A0BB3D4F8A1
:10B5F000F0302A461BB1D3691432002BFBD10B6A01
:10B600006BB1996839B9934209D0196829B15B685F
:10B6100099680029F7D01433F3E7C3E900055FFA0E
:10B620008CFC8CF31188D4F8D4300133C4F8D430B6
:10B6300038BD0D625FFA8CFC8CF31188FFF718FFA0
:10B64000B8E700BF001000E02DE9F041826992F8F0
:10B65000DC30012B8AB005464CD0023B012B54D87C
:10B6600092F84C31D2F89C202E4C63F07F0313707B
:10B670008769D7F8A030D7F8108003F1010E0FCCFE
:10B68000EC46ACE80F00D7F89C30CDE9003E0FCC7B
:10B69000ACE80F0094E8030007F110068CE8030003
:10B6A000EFF31180102383F312883B691B6A002B90
:10B6B0002FD0029B6A461BB1D3691432002BFBD1F9
:10B6C000D8F8203073B1996839B99A420AD019680C
:10B6D00029B15B6899680029F7D01433F3E71E603D
:10B6E000C3F804D0C0B280F31188AA6911690B6A4B
:10B6F000002BFCD1D2F8A0305A8852BAEA819A883D
:10B7000052BA2A82DB885BBA6B8201200AB0BDE89C
:10B71000F081C8F820D0C0B280F311883046FFF71E
:10B72000A7FEE2E77C2907082DE9F04190F8DC301C
:10B73000D0F8A050012B8AB0044673D041D9023B07
:10B74000012B6BD890F84D31D0F89C205E4E63F001
:10B750007F031370D0F8A030D0F8108003F1010EF1
:10B7600000F110070FCEEC46ACE80F00D4F89C3087
:10B77000CDE9003E0FCEACE80F0096E803008CE860
:10B780000300EFF31180102383F3128823691B6AEF
:10B79000002B00F08F80029B6A461BB1D3691432E4
:10B7A000002BFBD1D8F820302BB3996839B99342DC
:10B7B00021D01968E1B15B6899680029F7D014338A
:10B7C000F3E7D0F89C304FF0FF321A605A609A606D
:10B7D000DA60D0F8E0300522B3F57A7FC0F8F020C7
:10B7E0003BD8032380F8DC3001200AB0BDE8F081AB
:10B7F0001F60C3F804D0C0B280F311882269136AB5
:10B80000002BFCD16B885BBAA4F8D030AB885BBA54
:10B81000A4F8D230EB885BBAA4F8D43001200AB087
:10B82000BDE8F08190F84C2190F84D319B1A5B10E7
:10B830000133DBB205EB430235F813305BBAA0F8F5
:10B84000D03053885BBAA0F8D23093885BBAA0F8A6
:10B85000D43001200AB0BDE8F08103691A7B2AB315
:10B860005B691BB390F8983003B390F84C31D0F873
:10B870009C20C4F8A40063F07F03137090F84C116F
:10B8800090F84D31D0F8A0201048C4F804015B1A9C
:10B8900007330121C4F8FC30D4F89C3084F800113F
:10B8A0000A44C4E93D3284F8DC10B7E7022384F887
:10B8B000DC30B3E7C8F820D0C0B280F31188384636
:10B8C000FFF7D6FD9AE700BF7C29070839800008FA
:10B8D000D3B2012B1DD8104B02EB420210B54FEA38
:10B8E000820E0EF1080403F5137C02E01C3363455D
:10B8F0000DD01A788242F9D15A788A42F6D11A5973
:10B90000002AF3D00EF1040E03EB0E0010BD002050
:10B9100010BD0020704700BFA429070810B40C4CCC
:10B92000002304F6840C01E0152B0CD003EB43023A
:10B9300001331CF802108142F6D1144494F98608B0
:10B940005DF8044B70474FF0FF305DF8044B7047D3
:10B95000201C0020D3B2022B22D870B502EB420289
:10B96000104C4FEA820E23460EF10C05002204E033
:10B970000132172A03F12C0310D01E68B042F7D110
:10B9800093F804C08C45F3D15E59002EF0D02C21E1
:10B990000EF1080301FB0233E01870BD002070BDFA
:10B9A00000207047381B0708002839D030B51D4DDE
:10B9B00090F804C0002305F6840401E0152B2DD077
:10B9C00003EB43020133A15C6145F7D115440468E0
:10B9D00095F9863890F805E0DAB2022A1ED803EB12
:10B9E000430311484FEA830C0CF10C050346002277
:10B9F00004E00132172A03F12C030FD019688C429E
:10BA0000F7D119797145F4D159590029F1D02C2178
:10BA10000CF1080301FB0233184430BD002030BD97
:10BA2000704700BF201C0020381B07080348D0F8CF
:10BA3000483113B100F59C70184770478801002009
:10BA40000348D0F86C3113B100F5AE701847704759
:10BA5000880100200348D0F8903113B100F5C07080
:10BA600018477047880100200348D0F8B43113B15B
:10BA700000F5D27018477047880100200348D0F8BD
:10BA8000D83113B100F5E4701847704788010020E1
:10BA90000348D0F8FC3113B100F5F6701847704731
:10BAA000880100200348D0F8203213B100F504705B
:10BAB00018477047880100200348D0F8443213B17A
:10BAC00000F50D7018477047880100200348D0F832
:10BAD000683213B100F516701847704788010020CE
:10BAE0000348D0F88C3213B100F51F701847704727
:10BAF000880100200348D0F8B03213B100F5287057
:10BB000018477047880100200348D0F8D43213B199
:10BB100000F5317018477047880100200348D0F8BD
:10BB2000F83213B100F53A701847704788010020C9
:10BB30000348D0F81C3313B100F543701847704721
:10BB4000880100200348D0F8403313B100F54C7051
:10BB500018477047880100200348D0F8643313B1B8
:10BB600000F555701847704788010020094B0A4AB4
:10BB7000013800EBC00003EB80030848D3F83831EC
:10BB8000116B834214BF4FF480034FF400130B4337
:10BB900013637047880100200038024000600240B3
:10BBA00070B501383C4C3D4D00EBC00C04EB8C0CE7
:10BBB0009646DCF838613A4AAE4214BF4FF480052D
:10BBC0004FF40015166B35431563CCF84811CCF8CB
:10BBD00050313449DCF83C318B424FEAC0023ED050
:10BBE00001F580618B423AD0A1F57A718B4247D042
:10BBF00001F580618B4243D0A1F57A718B4241D02F
:10BC000001F580618B423DD0A1F57A718B4235D030
:10BC100001F580618B4231D0A1F57A718B4233D02E
:10BC200001F580618B422FD0A1F57A718B422DD026
:10BC300001F580618B4229D0A1F57A718B4227D022
:10BC400001F580618B4223D0A1F57A718B4221D01E
:10BC5000154D01F580618B4218BF002500E0134DA2
:10BC6000131804EB8303CEF38711C3F8585193F8EC
:10BC70004D01BDE87040002260F008BC0C4DEFE7BC
:10BC80000C4DEDE70C4DEBE70C4DE9E70C4DE7E70C
:10BC90000C4DE5E7044DE3E7880100200060024019
:10BCA0000038024010600240008000282080001010
:10BCB00000800018008800100080201020800020E4
:10BCC00000880020008020202DE9F04F934A92F850
:10BCD000D538012B85B021D0022B15D0002300933D
:10BCE0008F4F4FF0000807F1780A3B78022B17D0EE
:10BCF00008F10108B8F1030F07F128070AF1050A56
:10BD0000F3D105B0BDE8F08F92F8CA3833B192F89C
:10BD1000C638083B18BF01230093E1E70093DFE733
:10BD20009AF903307F4D0297591C15BFDBB20023EF
:10BD30009B464FF0010B1E46DAB2012A00F2DB806F
:10BD400006EB460189007300774C019308315FFAD6
:10BD500088F703E01C34AC4200F0CD802378002B40
:10BD6000F8D16378BB42F5D160580028F2D010F0CA
:10BD700087FE009B814623B1A0F10901072940F20B
:10BD8000BF807A1CD2B21421484610F065FE00280C
:10BD900000F0B180DDE90137334404EB830409F19D
:10BDA000FF33E068614C594203EBC30201F0070125
:10BDB00003F0070358BF4B4204EB820104F59C7467
:10BDC00004EB8202C1F844013A61484681F84031EF
:10BDD000FFF7CCFE9AF904305A1C00F09A80DEB2CC
:10BDE0003246CDE902974F4DF3B29346012B62D80C
:10BDF00006EB4601890073004B4C019308315FFA52
:10BE000088F902E01C34AC4255D02378012BF9D1DB
:10BE100063784B45F6D160580028F3D010F030FE1F
:10BE2000009B07461BB1A0F10901072947D909F179
:10BE30000102D2B21321384610F00EFE00283AD08B
:10BE4000019ADDF808903244BB4604EB82040BF102
:10BE5000FF325142E068354C039F02EBC20501F00E
:10BE6000070102F0070258BF4A4204EB850104F5BE
:10BE70009C7404EB8505C1F844017D61584681F846
:10BE80004021FFF773FEB9F1000F3DD0BBF1000F69
:10BE90001BD02846FCF7F6FA3869FCF7F3FA384667
:10BEA000FCF7C0FA00231A4621495846FFF778FEEE
:10BEB00001233B731CE70136F3B29B4596D2DDE9C3
:10BEC0000297B9F1000F1FD01A4C09F1FF33242259
:10BED00002FB0340002438617C61FCF7D3FA38464A
:10BEE000FCF7A0FA2346144922464846FFF758FEBD
:10BEF00001233B73FCE60136F2B29345BFF41DAF5C
:10BF0000029F4FF0000965E700220023C7E90423E0
:10BF1000EEE601231A46002663E700BF201C00203E
:10BF200010250020F02B0708A4290708880100200D
:10BF3000959D0008C00200200D9E00080C4A0D4986
:10BF400003469342D1F8F40010D0A2F580629342E8
:10BF50000CD002F58042934208D002F580629342F1
:10BF600004D002F58062934218BF4008704700BFBA
:10BF700000040140201C0020800AA0F580105228F7
:10BF800008D8054B034493F800340D2B02D8034A1C
:10BF9000D056704700207047381B0708D8C10708E3
:10BFA000064A136851690B4003F00103536123B142
:10BFB000034BD3F80C07036818477047003C014057
:10BFC000201C0020064A136851690B4003F002034D
:10BFD000536123B1034BD3F8100703681847704728
:10BFE000003C0140201C0020064A136851690B40A8
:10BFF00003F00403536123B1034BD3F81407036820
:10C0000018477047003C0140201C0020064A136876
:10C0100051690B4003F00803536123B1034BD3F87C
:10C020001807036818477047003C0140201C002097
:10C03000064A136851690B4003F01003536123B1A2
:10C04000034BD3F81C07036818477047003C0140B6
:10C05000201C0020F8B50C4B1D685A69154005F4EA
:10C0600078755D617DB1094F0126B5FA85F4C4F19B
:10C070001F0407EB840306FA04F4D3F80C070368E3
:10C080009847A543F1D1F8BD003C0140201C002099
:10C09000F8B50C4B1D685A69154005F47C455D6187
:10C0A0007DB1094F0126B5FA85F4C4F11F0407EBF1
:10C0B000840306FA04F4D3F80C0703689847A543F1
:10C0C000F1D1F8BD003C0140201C0020F0B5054630
:10C0D00083B0A0B307681D4B144607F13F4202F539
:10C0E0007E0203EB92230E4693F8A4045DF088FCD5
:10C0F000A988B1FA81F3C3F11F03C3F3CC0207EBA4
:10C10000820203F00703156A4FF00F0C9B009C405E
:10C110000CFA03F325EA03031362136A1C43146247
:10C12000C6F30013C6F34112CDE900323846C6F318
:10C13000810306F0030260F0CDF903B0F0BD034BBC
:10C1400093F8A3045DF05CFC2B68FFDE381B070846
:10C1500000B1BBE7704700BF2DE9F047684E06EB22
:10C160000013D3F87849002C76D093F880790546EF
:10C170004FEA001838465DF043FC07F01F027F09C4
:10C180000123032F03FA02F372D0042F6BD0022F86
:10C1900064D006EB0803013593F87C09FFF716F825
:10C1A000EDB2824610B11223C571837106EB08030C
:10C1B00093F87D09FFF70AF8814610B11323C57182
:10C1C000837106EB080393F87E09FEF7FFFF07462D
:10C1D00010B11423C571837106EB0803504693F820
:10C1E0007F594A212A46FFF7B3FF2A4648462A21AB
:10C1F000FFF7AEFF2A460A213846FFF7A9FF414B59
:10C200009C423AD0404B9C4242D0404B9C424AD048
:10C210003F4B9C4252D03F4B9C425AD03E4B9C429B
:10C2200062D0A38823F003031B041B0CA380238884
:10C2300003F4415343F4457343F003032380A38B7A
:10C2400023F400631B041B0C0722A3832282238890
:10C250009BB243F040032380BDE8F0872F4A516A28
:10C260000B43536295E72D4A11690B43136190E725
:10C270002A4A116A0B4313628BE703F584335A6A27
:10C2800042F480525A625A6A22F480525A62C8E7D3
:10C2900003F500331A6A42F480421A621A6A22F4E1
:10C2A00080421A62BDE703F5FE331A6A42F4004287
:10C2B0001A621A6A22F400421A62B2E703F5823364
:10C2C0005A6A42F400525A625A6A22F400525A627E
:10C2D000A7E703F568435A6A42F480125A625A6A21
:10C2E00022F480125A629CE703F564435A6A42F4CE
:10C2F00000125A625A6A22F400125A6291E700BF91
:10C30000201C00200030014000380040003C00406C
:10C310000034014000500140005401400038024008
:10C32000431C00F059812DE9F04FDFF884A400EBA5
:10C3300080030AEBC30287B0D2F80C908100054657
:10C340000191DB00B9F1000F07D0D2E90548002CBC
:10C3500000F00E8194F9062012B107B0BDE8F08F0D
:10C36000B8F1000F00F0628198F90620002AF4D19C
:10C3700018330AF10C06F018D9F80470F250691C51
:10C38000C0E901221523C260C9B2A3711623E1716D
:10C3900088F8071088F8063099F828005DF030FB1F
:10C3A000BB882268A08823F440731B041B0CBB804D
:10C3B000D8F800301083B8F804201A8311212046E1
:10C3C000FEF750FE11214046FEF74CFE09264FF0C5
:10C3D000330B2CB9F7E0BBF1010B08D0FEF700FCE2
:10C3E0002268A188136919424FF00A00F3D05183E3
:10C3F0000520FEF7F5FB2368A2881A830520FEF7C7
:10C40000EFFB013EE3D1002C00F03281332603E044
:10C41000013E08D0FEF7E4FB2268A18813691942A7
:10C420004FF00A00F4D051830520FEF7D9FBB8F194
:10C43000000F00F04A81D8F80030B8F804205A8381
:10C440000520FEF7CDFB2368A2881A830520FEF79E
:10C45000C7FBD8F80030B8F804201A830520FEF78F
:10C46000BFFB2368A2881B691A4240F0B680019B7B
:10C470002B440AEBC303997F1A7F002940F0B9804F
:10C4800020461221FFF722FE1221019B2B440AEBCA
:10C49000C3035A7F4046FFF719FEBF4B9F4200F08F
:10C4A0003281BE4B9F4200F03981BD4B9F4200F06C
:10C4B0004681019B2B440AEBC3034FF47A721C8C18
:10C4C000BB8823F440731B041B0CBB803B889BB2CE
:10C4D00043F001033B80BD8802A802FB04F425F071
:10C4E0003F0557F0A9FC0499AE4B2D04A3FB012393
:10C4F0002D0C45EA9345BD803A8822F001021204D2
:10C50000120C3A80A84A980C9442034677DC6200E9
:10C51000B1FBF2F292B20133042A38BF04223B8409
:10C52000BA833B889BB243F001033B803B8823F4F2
:10C53000816323F002031B041B0C4FF4804143F47E
:10C5400080633B8039813B8823F080031B041B0CF4
:10C5500000223B8099F82A0011465FF097FF0022E5
:10C5600099F82900114607B0BDE8F04F5FF08EBF83
:10C57000B8F1000F00F0F88098F90620002A7FF447
:10C58000ECAE18330AF10C01CA18D9F80470CC507B
:10C59000C2E901441623D46088F806306B1C88F881
:10C5A000073099F828005DF02BFABB88B8F8042012
:10C5B00023F440731B041B0CBB80D8F800301A8393
:10C5C00000E7FEF70DFBBBF1010B4FF00A00F8D1BD
:10C5D0000520FEF705FB11E77047019BD8F8002006
:10C5E0002B440AEBC30312699A7F002A00F0A18052
:10C5F0001A7F32212046FFF769FD322145E704EB1F
:10C600004404B1FBF4F18AB2C1F30B0109B942F061
:10C61000010266494FF4967300FB03F3A1FB031379
:10C620009B09013342F400423B8479E70AF10C0193
:10C630001833CA18D9F8047041F80380C2E9018898
:10C640001523C2F80C80A371431CE37199F82800EC
:10C650005DF0D6F9BB88A28823F440731B041B0C41
:10C66000BB80236811211A832046FEF7FBFCADE650
:10C67000332401E0FEF7B4FA013C4FF00A00F9D18F
:10C680000520FEF7ADFAB8F1000F63D0D8F80030FE
:10C69000B8F804205A830520FEF7A2FA0520FEF719
:10C6A0009FFAD8F80030B8F804201A830520FEF766
:10C6B00097FA019B2B440AEBC3039A7F002A18BF09
:10C6C00032215A7F08BF1221E4E60520FEF788FADE
:10C6D0002368A2881A830520FEF782FA0520FEF758
:10C6E0007FFA2368A2881B691A4263D1019B2B44FD
:10C6F0000AEBC303997F1A7F00296AD020463221B2
:10C70000FFF7E4FCC9E603F5F2331A6A42F40012BB
:10C710001A621A6A22F400121A62CAE603F5F033AA
:10C720001A6A42F480021A621A6A22F480021A62B9
:10C73000BFE61A7F20461221FFF7C8FCA4E603F5E6
:10C74000EE331A6A42F400021A621A6A22F40002F4
:10C750001A62AEE60520FEF743FA0520FEF740FA1E
:10C760000520FEF73DFA98E618330AF10C01CA18C5
:10C77000D9F8047041F80380C2E90188C2F80C803E
:10C7800099F828005DF03CF9BB8823F440731B0442
:10C790001B0CBB801AE600BF00540040005800404C
:10C7A000005C004083DE1B43A0860100D34D621075
:10C7B000201C0020019B2B440AEBC30320469A7FD8
:10C7C000002A18BF32211A7F08BF1221FFF77EFC12
:10C7D00063E620461221FFF779FC5EE62DE9F84377
:10C7E0000746FDF763FEDFF84C8007EB8709044638
:10C7F00008EBC90542F20F7604E0FDF757FE001B77
:10C80000B0420BDC95F82530002BF6D108EBC908B7
:10C8100098F8240080F00100BDE8F883B8F8A83942
:10C82000013338469BB2A8F8A839FFF779FD0020FC
:10C83000BDE8F883201C002010B582B004468DF8B6
:10C8400007300DF107035DF06FF808B902B010BDB5
:10C850002046FFF7C3FF02B010BD00BFB0F1FF3F9D
:10C860006DD02DE9F04F022883B0044614DC354E1C
:10C87000984600EB800306EBC305DB00D5F810A05B
:10C880000093BAF1000F07D0894695F8251093461A
:10C8900001F0FF02019219B1002003B0BDE8F08F52
:10C8A000FDF704FE009B019A203307464FEA490139
:10C8B00006F10C00C9B200EB030C85F826104FF00E
:10C8C000010E0C9985F827B085F8292085F82AE013
:10C8D000C150CCF8041085F8288085F825E085F84B
:10C8E0002420BAF8043099051DD4BAF80030DA05CE
:10C8F00012D442F20F7504E0FDF7D8FDC31BAB4222
:10C9000013DCBAF800309B05F6D4BAF800309BB2BD
:10C9100043F48073AAF80030BAF804309BB243F4B1
:10C920004073AAF804300120B7E7B6F8A8390133FC
:10C930009BB22046A6F8A839FFF7F2FCACE700202E
:10C94000704700BF201C0020E0B5294E00EB80039B
:10C9500006EBC30384B0DA685568AA8A92B20392E0
:10C96000039A12F4706F1CBF012283F82420039BEA
:10C9700013F4E06F4FEA80070DD1AB8A074423F42C
:10C98000706306EBC7061B041B0C0022AB8286F803
:10C99000252004B0E0BD2B8BAB8823F480631B04FF
:10C9A0001B0CAB80039B9A05E7D42B889B05E4D432
:10C9B0002B88D9050FD52B88DA05FCD42B889BB2A0
:10C9C00043F400732B802B889B05FCD40190FFF768
:10C9D000A7FC0198D1E72B889BB243F400732B800E
:10C9E000AB8823F440731B041B0CAB80C5E700BF6E
:10C9F000201C00200020A7E70120A5E70220A3E7D4
:10CA000070B590F871301C09013C052C0FD81A4EF6
:10CA100006EB44020546B2F8F40303F00F0340FAB4
:10CA200003F2D20703D595F87220012A01D0012024
:10CA300070BD9A40013A1040264463F0D7FE96F844
:10CA40003C3E0E4A034402EBC30452F83320A38851
:10CA500010691840ECD0EB6E002285F8722093F834
:10CA6000212002212046FFF731FB2A6E93899BB2D9
:10CA700043F008039381DAE7381B0708181D0020EC
:10CA8000F8B50E4C94F8C8759FB104F5BA64C7F1B7
:10CA900009070925013D0ED0A6683079FEF796FBFF
:10CAA000217DF27908B1FFF711FBAF4204F18C044C
:10CAB000F0D10120F8BDAB68FFDE00BF040000101C
:10CAC000094BD3F8AC29D3F8B01940F22A4000231F
:10CAD00050604B620B889BB243F001030B801368DC
:10CAE00043F0010313607047201C00201D4B1E48BB
:10CAF000196C1E4A10B441F080510124196404627B
:10CB00005321FF24CA205462506251625B6FDB00E4
:10CB100085B017D416480423002102910290029A8E
:10CB20001A440292029A04331C2B1160F5D103912E
:10CB30000390039B0393039B0E4A1A6005B05DF8B4
:10CB4000044B70470A4B002201920193019B019311
:10CB5000019A084B12689A42DCD105B05DF8044B8B
:10CB6000704700BF0038024000000E42002800401D
:10CB700050280040316665422DE9F041046ED0F83E
:10CB80000880A38923F400531B0407461B0CA381D0
:10CB900043793D79C3F38000190305F001061B02B8
:10CBA00015F002054FEA00304FEA860203F4806375
:10CBB00018BF42F0080203431A43238A9BB201F4D0
:10CBC000005123F440530B432382A38923F4B05331
:10CBD00023F00C031B041B0C1A43A281A38A23F429
:10CBE00040731B041B0C90B0A38201A857F024F9DA
:10CBF0006B4B9C4205D003F580639C4201D0039BA4
:10CC000000E0049BA2896749A089120403EB830317
:10CC10004CBF4FEA48084FEA880803EB8303B3FB95
:10CC2000F8F3A1FB03C252094FF0640C00040CFBA3
:10CC300012334FEA021200F19A801B013233A1FB3A
:10CC40000313C3F3431313439BB2238197F93800B3
:10CC500097F80580FEF7E2FA30B10368828818F091
:10CC6000010F14BF1A835A8318F0080FA38A78D0D3
:10CC70009BB243F00803A382A3899BB243F4005301
:10CC8000A381002E2FD0FE6B002E7DD00023CDE996
:10CC90000833CDE90C33CDE90E33049306937B6C56
:10CCA0000193FB6D0293FB6805937B6903934FF43B
:10CCB00080714FF48033CDE90A1330464FF480631E
:10CCC000079357F005F901A9304655F031FC336858
:10CCD00043F001033360A38A9BB243F04003A38275
:10CCE00073689BB27B65002D33D03E6C002E46D01E
:10CCF000BB6C0193BB6D02933B6905934023049386
:10CD00004FF48033002530460B934FF48063079334
:10CD1000CDE90855CDE90C55CDE90E55039506959D
:10CD20000A9557F0D5F801A9304655F001FC736912
:10CD300043F080037361336843F01603336075601A
:10CD4000A38A9BB243F08003A382E36843F04003CD
:10CD5000E360A3899BB243F40053A38110B0BDE804
:10CD6000F08123F008031B041B0CA38284E7DB0083
:10CD70003233A1FB0313C3F34213134364E7E368A5
:10CD800043F08003E360E0E74FF6DF732380E3685E
:10CD900043F02003E360E36843F01003E360A2E79D
:10CDA000001001401F85EB51BFF34F8F0549064B23
:10CDB000CA6802F4E0621343CB60BFF34F8F00BF39
:10CDC000FDE700BF00ED00E00400FA0508B5002112
:10CDD000032057F067F972B6FFF7E6FF154C08B568
:10CDE000D4F8B43994F8BA09ABB91420FDF788FF28
:10CDF00000BFD4F8B4395BB11A689B88116994F804
:10CE0000BA290B4012B91BB1FFF7E0FF002BFBD092
:10CE1000FCF7A8FBECE719689A880B69134020B16E
:10CE2000002BE2D10B691340FAE7002BDDD00B6930
:10CE30001340FAE7201C002008B572B6FFF7B4FFD4
:10CE400000B583B00D49002200920091009B0C3385
:10CE50000093009B1B68012B02D003B05DF804FB1C
:10CE600001920191019B06490C330193019B1A60C9
:10CE70000B6883F308884B689847FEE7502800400A
:10CE80000000FF1F38B5FFF731FEFFF7D9FF012083
:10CE900057F018F96E4A936823F003039360936880
:10CEA00013F00C0FFBD113686949A0B943F00103DB
:10CEB000136041F2883302E0013B00F0C7800A684A
:10CEC0009507F9D5634C00220823C4F8BC29C4F89F
:10CED000C03902251EE043F48033136041F28833E9
:10CEE00002E0013B00F0B2800A689403F9D5594C86
:10CEF000594B5A4DB0FBF5F5B0FBF3F0B5EB400FD5
:10CF000018BF28464FF48003C4F8BC39C4F8C009E0
:10CF1000B5FBF0F50220C4F8C45957F0D3F8032844
:10CF20000DD84F4B03EBC0039988DA88C4F8CC19AD
:10CF30005B88C4F8D029B3FBF5F3C4F8C839444B77
:10CF400048491A6C42F080521A640A6842F440421E
:10CF50000A609A689A609A6842F400429A609A68F5
:10CF600042F4A0529A60D4F8BC19D4F8C0290A43FC
:10CF7000D4F8C81942EA8112D4F8D01942EA016201
:10CF8000D4F8CC194908013942EA01425A601A68BA
:10CF900042F080721A601A689201FCD5324A40F25F
:10CFA00005711160996821F003019960996841F059
:10CFB0000201A2F580629960936803F00C03082BCC
:10CFC000FAD12A49D823B3FBF5F39B0143F0005370
:10CFD0000120C2F884308866FBF740FD244D1C4BCD
:10CFE000244AEA60596F244AC4F8D419AA605A6BDB
:10CFF000224922F080025A635A6F42F080725A67C7
:10D000001A6B42F4CE021A635A6B5A639A6B9A6394
:10D010001A6C0A431A64596C194A0A435A64FCF799
:10D020000FFB184AD4F8F430A2FB03239B09013B01
:10D03000B3F1807F09D24FF0E022F020536100214C
:10D04000072385F823009161136138BD014CC5E7C2
:10D0500000380240201C002080841E0040420F0047
:10D06000F02B070800700040003C024000004742DF
:10D0700000ED00E00005FA0500000020FFC9FE36C3
:10D08000335F0700D34D621030B5154C154D85B098
:10D090000139002389B2A042ADF80C30ADF806305A
:10D0A0008DF80E300291D5F8F4300FD00E49884239
:10D0B0000CD001F58041884208D001F5806188429A
:10D0C00004D001F58061884218BF5B08B3FBF2F31E
:10D0D00001A9013BADF8043057F0E8F805B030BDC8
:10D0E00000040140201C00200000014030B504680D
:10D0F0002A482B4D85B00139002389B28442ADF80E
:10D100000C30ADF806308DF80E300291D5F8F430C1
:10D110000FD024498C420CD001F580418C4208D0BC
:10D1200001F580618C4204D001F580618C4218BF0A
:10D130005B08B3FBF2F301A9013B2046ADF80430D4
:10D1400057F0B4F82288184892B242F00102002346
:10D1500000F63451228051F83320944208D0013334
:10D160000E2BF8D1002005B0BDE83040FBF77CBBAA
:10D1700000EBC30090F8394D2046FBF775FB1B2CE4
:10D1800005D02E2C08BF2C20EDD005B030BD1920C5
:10D1900005B0BDE83040FBF767BB00BF00040140AD
:10D1A000201C002000000140381B070870B50468EF
:10D1B000A30AA3F58013522B50D8364D2B4493F875
:10D1C00000C4BCF10D0F49D84379022023FA00F5C1
:10D1D0000CEB8C03A8400CEB43031FFA80FE2B449E
:10D1E000002949D0A5892C48ADB200EB830645EA59
:10D1F0000E05C6F8FC13C6F80C24A581EFF31186C2
:10D20000502383F312882C2202FB0C03D3F8F8136B
:10D2100061B3C3F81C14214B04310CEB8C02204D7C
:10D220000CEB4202920005EB020E1032134453F84D
:10D23000042F0AB10A60111D7345F8D10022F3B220
:10D240000A6083F311882C2303FB0C00D0F81C34F4
:10D250002BB1A3899BB243F00103A38170BDA389C5
:10D2600023F001031B041B0CA38170BD0B4B02FBBD
:10D270000C3202F12401D0E7A08980B220EA0E002E
:10D28000A081054800EB8305C5F8FC13C5F80C2404
:10D29000B4E700BF381B0708201C0020182000201E
:10D2A0003820002001490248FCF784BB18200020E8
:10D2B0000000014010B5064C064804F57E71FCF7ED
:10D2C00079FB04F284510448BDE81040FCF772BBBE
:10D2D000201C0020000001400044014002494FF0A2
:10D2E0008040FCF767BB00BF442000200149024892
:10D2F000FCF760BB70200020000400400149024898
:10D30000FCF758BB9C20002000080040014902485F
:10D31000FCF750BBC8200020000C00400149024827
:10D32000FCF748BB4C2100200004014010B5064C1E
:10D33000064804F22C51FCF73DFB04F5C16104489A
:10D34000BDE81040FCF736BB201C00200004014063
:10D35000001C004001490248FCF72CBB782100204A
:10D360000040014001490248FCF724BBD0210020C5
:10D370000048014001490248FCF71CBBFC21002089
:10D380000018004001490248FCF714BB5422002059
:10D390000020004010B50C2935D8DFE801F09134A9
:10D3A000343463343434073434343500038C5488D3
:10D3B000B2F80CE023F480731B041B0C0384038C71
:10D3C000B0F804C0818B21F073014EEA040E090409
:10D3D000148823F40073090C1B042143764C1B0CA6
:10D3E00043EA0E23A0421FFA8CFC9BB200F094800B
:10D3F00004F58064A04200F08F809268A0F804C019
:10D400008183C263038410BD038C5488B2F80CE09E
:10D4100023F480531B041B0C0384038CB0F804C05A
:10D42000818B21F4E6414EEA040E0904148823F4AA
:10D430000053090C41EA04211B045F4C1B0C43EA16
:10D440000E33A0421FFA8CFC9BB289B27ED004F549
:10D450008064A0427AD09268A0F804C081830264FC
:10D46000038410BD038C5488B2F80CE023F0100341
:10D470001B041B0C0384038CB0F804C0018B21F443
:10D48000E6414EEA040E0904148823F02003090C37
:10D4900041EA04211B04484C1B0C43EA0E13A04232
:10D4A0001FFA8CFC9BB289B26CD004F58064A04258
:10D4B00068D09268A0F804C001838263038410BD21
:10D4C000038C5488B2F80CE023F001031B041B0CFE
:10D4D0000384038CB0F804C0018B21F073014EEA81
:10D4E000040E0904148823F00203090C1B042143D1
:10D4F000314C1B0C43EA0E03A0421FFA8CFC9BB27A
:10D500002CD004F58064A04228D09268A0F804C012
:10D5100001834263038410BDD489B2F810E023F480
:10D52000006343EA0423548A2CF4405C4EEA040E60
:10D530004CEA0E1C94884FF6FF3E03EA0E0E4EEAAC
:10D54000042E1FFA8CFC1FFA8EF356E7148A2CF473
:10D55000804C4CEA841C1FFA8CFC7CE7D489B2F81E
:10D5600010E023F008032343548A2CF4407C4EEA55
:10D57000040E948823F004034CEA0E0C1FFA8CFC72
:10D580002343C2E7D489B2F810E023F0800343EAD2
:10D590000413548A2CF4406C4EEA040E4CEA8E0CB0
:10D5A00094884FF6BF7E03EA0E0E4EEA041E1FFA61
:10D5B0008CFC1FFA8EF37CE7000001402DE9F04F50
:10D5C000B14BDFF8DC8293F8D6E8B04CB04D93B0A5
:10D5D0000EF1FF37FBB200930023CDE9013EC246B6
:10D5E000DFF8C0B2DBF80070BB0AA3F58013522B42
:10D5F00000F20B81234493F800340D2B00F20581D7
:10D6000015F90390029B012B00F00681029B022B6F
:10D6100002D1B9F1080F33D100263146484612F045
:10D620004BF812F0D5F890F9003013B1542B40F0BC
:10D63000EB820436B6B2102EEFD1019B0021002BF5
:10D6400000F0A38042460CE0234493F800340D2BF5
:10D650000ED8EB564B450ED002F58072524500F0C5
:10D660009180906803689B0AA3F58013522BEBD935
:10D6700000234B45F0D143799BF805009842EBD14C
:10D68000844B0BF11C0B9B45ACD1019B0133042B4C
:10D6900001930AF5807AA3D1DFF80C9299F8C83586
:10D6A000013309F5816A04934FF0010B049B5B453C
:10D6B00065D0DAF80C30744A9AF8101092F8D8292C
:10D6C00001930291002B5AD01968D9F804009B8865
:10D6D000039101F13F4505F57E0500284FEA9525A8
:10D6E000009340F3A780002303E00133834200F05E
:10D6F0009E801C0258F80410A942F6D14444009AB6
:10D70000029B8AF81030B2FA82F6019BCAF80C30FC
:10D71000C6F11F054FF00301CAF80450CAF81840BB
:10D72000997183F807B0E16C606C6B0001220327EC
:10D730009F4002FA03F3194399F80030E16438433B
:10D7400002FA05F56064276DD4F8A000A9B2002B99
:10D7500000F060823D432565039D009B2B83FAF713
:10D76000E1FE20460BF1010BFBF722F840F201131A
:10D77000BBF1090FAAF81C300AF1200A96D113B0A8
:10D78000BDE8F08F00297FF47BAF5846FAF790FE92
:10D79000C3B2022B9BF805E000F2778200F1010C86
:10D7A0003A4A0CEB4C0C4FEA8C0C02F57D7003E00E
:10D7B0002C32904200F0698213689F42F8D11379AD
:10D7C0007345F5D152F80C30002BF1D03248426845
:10D7D0009A424FF0000108D00131102900F12400D5
:10D7E0003FF44EAF42689A42F6D14B1CDBB22B4A53
:10D7F000013B03EBC30302EB830393F95431002B8A
:10D800007FF43EAFCAF808B03FE7009B012B7FF6DC
:10D8100037AF4FF00009FFE6B9F1010F3FF4FCAE5E
:10D820001C4B0BF11C0B9B457FF4DCAE2DE7042B4E
:10D8300000F0FC8109EB00230102059119690691B2
:10D84000002900F016826C1C0792E4B24FF05402DB
:10D850009D6083F8042183F80541069B01305E79C1
:10D86000C9F8040018461D680896FAF721FEC3B2ED
:10D87000022B00F20A82471C07EB4707034B079A6B
:10D88000BF000021B44617E0201C0020381B070809
:10D89000D8C107080C2D0708C0020020880100200D
:10D8A0000C000010102C070804000010013117298B
:10D8B00003F12C0300F0E9811E68B542F6D11E7910
:10D8C0006645F3D1DE59002EF0D02C2300EB40004A
:10D8D00001FB03F3BB49BC4F03EB80030B44384609
:10D8E0001969059B0A914B44C3E906614368B34239
:10D8F0004FF0000108D00131102900F124003FF45D
:10D900003EAF4368B342F6D14B1CDBB2AF49013B9B
:10D9100003EBC30301EB830393F9541100297FF454
:10D920002EAF83F85541059CA948E11101EB242154
:10D9300001EB011100EB810C0599CDF81CC08C2482
:10D94000091204FB01F100F54C7000EB4100059950
